:020000040020DA
:1000000060040020DD0120008F0F20008B0F2000F6
:100010008D0F2000E90220000511200000000000E3
:10002000000000000000000000000000211020007F
:10003000EB02200000000000910F200023102000A0
:10004000F7012000F7012000F7012000F701200050
:10005000F7012000F7012000F7012000F701200040
:10006000F7012000F7012000F7012000F701200030
:10007000F7012000F7012000F7012000F701200020
:10008000F7012000F7012000F7012000F701200010
:10009000F7012000F7012000F7012000F701200000
:1000A000F7012000F7012000F7012000F7012000F0
:1000B000F7012000F7012000F7012000F7012000E0
:1000C000F7012000F7012000F7012000F7012000D0
:1000D000F7012000F7012000F7012000F7012000C0
:1000E000F7012000F7012000F7012000F7012000B0
:1000F000F7012000F7012000F7012000F7012000A0
:10010000F7012000F7012000F7012000F70120008F
:10011000F7012000F7012000F7012000F70120007F
:10012000F7012000F7012000F7012000F70120006F
:10013000F7012000F7012000F7012000F70120005F
:10014000F7012000F7012000F7012000F70120004F
:10015000F7012000F7012000F7012000F70120003F
:10016000F7012000F7012000F7012000F70120002F
:10017000F7012000F7012000F7012000F70120001F
:10018000F7012000F7012000F7012000F70120000F
:10019000F7012000F7012000F7012000F7012000FF
:1001A000F7012000F7012000F7012000F7012000EF
:1001B00015102000F7012000F7012000F7012000B2
:1001C000F7012000F7012000DFF80CD000F07AF8EA
:1001D000004800474911200060040020064880477D
:1001E00006480047FEE7FEE7FEE7FEE7FEE7FEE71C
:1001F000FEE7FEE7FEE7FEE7B1102000C9012000A0
:100200002DE9F05F0546002092469B46884606464B
:10021000814640241BE0284641464746224600F0DE
:1002200041F853465A46C01A914110D31146184618
:10023000224600F028F82D1A67EB01084F462246A7
:100240000120002100F01FF817EB00094E41201E8D
:10025000A4F10104DFDC484631462A464346BDE8A6
:10026000F09FD2B201E000F8012B491EFBD270478B
:100270000022F6E710B513460A4604461946FFF772
:10028000F0FF204610BD202A04DB203A00FA02F1DC
:10029000002070479140C2F1200320FA03F3194374
:1002A00090407047202A04DB203A21FA02F0002116
:1002B000704721FA02F3D040C2F120029140084376
:1002C00019467047064C074D06E0E06840F0010310
:1002D00094E8070098471034AC42F6D3FFF778FF54
:1002E0005012200070122000FEE7704790F8351081
:1002F000022903D08021416501207047052180F843
:1003000035100068016821F001010160002070478C
:100310002DE9F84FDFF89CE100224FF001084FF083
:10032000030B4FF00F0A00BF0B6808FA02F42340DA
:10033000A34271D14D68022D01D0122D0FD1D508E5
:100340000E69570700EB8505A9462D6AFF0E0AFACC
:1003500007FCBE4025EA0C052E43C9F820600F7942
:10036000550006680BFA05FC07F0030726EA0C06A1
:10037000AF40374307604E68012E05D0022E03D0F0
:10038000112E01D0122E0ED18668CF6826EA0C06F7
:10039000AF403743876046680F79A643C7F300171D
:1003A000974037434760C4688E6824EA0C04AE4027
:1003B0002643C6604C68E40075D53F4C256845F47B
:1003C00080452560246822F00306950704F48044E4
:1003D00000943A4C2D0F2644D6F80848DFF8E0C0C8
:1003E0000AFA05F7604524EA070401D100272EE048
:1003F000344FB84201D1012729E0334FB84201D12F
:10040000022724E0314FB84201D103271FE0304FCB
:10041000B84202D104271AE045E02E4FB84201D17C
:10042000052714E02C4FB84201D106270FE02B4FCF
:10043000B84201D107270AE0294FB84201D1082765
:1004400005E0284FB84201D1092700E00A27AF4054
:1004500027437546C6F808784E68DEF80040F60374
:1004600024EA030400D51C43124E2C60361D4D684F
:100470003468AD0324EA030400D51C430D4F3460F7
:1004800008374D683C68ED0224EA030400D51C439C
:10049000084D3C600C354E682C68B60224EA030413
:1004A00000D51C432C60521C102AFFF43DAFBDE860
:1004B000F88F0000003C0140443802400030014009
:1004C000000002400004024000080240000C02400C
:1004D000001002400014024000180240001C0240BC
:1004E000002002400024024001488068704700005C
:1004F0000000002002488168027811448160704742
:1005000000000020094810B5016841F40071016045
:10051000016841F480710160032000F06FF8002051
:1005200000F006F800F024F8002010BD003C024066
:1005300070B50D4D04464FF47A700C4A2978126854
:10054000B0FBF1F0B2FBF0F000F00CFD48B9102C5C
:1005500007D200222146501E00F030F800206C60C7
:1005600070BD012070BD0000000000200C000020C4
:100570000A4808B5016841F080510160006800F048
:10058000805000900548001D016841F480410160E1
:10059000006800F48040009008BD00004038024030
:1005A000002809DB410900F01F028900012001F148
:1005B000E0219040C1F80001704700000E4BF0B4FC
:1005C0001B680D46C3F30223C3F10706042E00D9AE
:1005D0000426191D072901D2002300E0DB1E012497
:1005E00004FA06F19C40491E2940641E99401440BB
:1005F0002143F0BC00F087BD0CED00E0064900F09F
:10060000070210B54FF6FF040868044B204040EA8B
:1006100002201843086010BD0CED00E00000FA0550
:100620001848F8B5016841F0805101600068164C27
:1006300000F080500090206840F480302060FFF788
:1006400053FF4FF47A76054605E000BFFFF74CFFF5
:10065000401BB0420FD86068C003F7D5206840F453
:1006600000302060FFF740FF054606E0FFF73CFF43
:10067000401BB04201D90320F8BD60688003F5D566
:100680000020F8BD40380240007000407047000074
:1006900070B5044690F841004FF0000580072CD556
:1006A000002184F84010082084F841002068016887
:1006B00021F4F811016020680168490711D501682B
:1006C00021F004010160E16B0D480865E06BFFF764
:1006D0000DFE90B1012084F841002046FFF7D6FFBF
:1006E0000BE00221C1602068016841F40031016023
:1006F0002068016841F002010160284670BD0000D9
:10070000930F2000704770477047000070B5044693
:10071000006882680168530732D54B0330D594F8DE
:100720004110203012290ED094F84110222919D0FE
:100730001CE0E16AF1B1616A4A1C626209780170E9
:10074000E16A491EE162216889684907F1D40DE038
:10075000A16B79B10378216B4A1C22630B70A16BEA
:10076000491EA163216889684907F1D42046FFF733
:10077000CBFF70BD2068016821F480210160F5E79E
:1007800093074FF001056DD58B036BD50221C16036
:100790002068016821F4E021016094F841001228EA
:1007A00010D094F84100222823D094F84100022868
:1007B0004AD094F841000828DBD184F84150606C9D
:1007C000F0B34BE020680168490709D5016821F0C2
:1007D00004010160E06B0068016821F00101016023
:1007E0002046FFF755FF84F84150204600F055F9A8
:1007F00070BD2068016849070AD5016821F004012D
:100800000160E06B0068016821F00101016010E007
:10081000203009E0A16B61B10378216B4A1C22638F
:100820000B70A16B491EA1632168896811F47C5F7C
:10083000F0D12046FFF72CFF84F84150204600E01D
:1008400008E000F027F970BD84F841502046FFF71A
:1008500059FF70BD2046FFF719FF70BD2046FFF716
:1008600052FF70BD130711D50B030FD50821C160CE
:1008700020680168490205D5016821F41021016052
:1008800084F84150204600F006F970BDD30722D00D
:10089000CB0320D5C5602068016821F47021016078
:1008A000606C40F0020060642068016849070FD561
:1008B000016821F004010160E16B0C480865E06B00
:1008C000FFF714FD0028E0D0606C40F00400606485
:1008D00084F84150C2E7D206D7D5C902D5D5102138
:1008E000C160204600F0D8F870BD0000930F2000D2
:1008F000F8B50446FFF7F8FD07465CB194F84000F0
:10090000012809D0012684F84060002594F84100B0
:1009100020B10BE00120F8BD0220F8BD84F8405062
:10092000204600F045F841F28830A06420686FF05E
:10093000FF03A168026803EB012322F4F851194375
:100940000160A06C002220213B460090204600F070
:100950003DFB30BB2268D4E9077C94F804E0E168F1
:1009600013683943104F4CEA0E6EDFF840C03B402D
:1009700041EA0E01194311602168D4E90527B4F852
:1009800010E04B683A4303EA0C0343EA0E431A4370
:100990004A6021680A6842F001020A60656484F8CE
:1009A000416084F84050F8BD2FFFFF00FEF8E0FFE3
:1009B0002DE9F04387B0044614216846FFF758FC40
:1009C0002F492068884257D12E48016841F0020122
:1009D0000160006800F0020005902A4808380168AC
:1009E00041F010010160016801F0100105910168FA
:1009F00041F002010160016801F002010591016806
:100A000041F0080101600068092701AA4FF00408BD
:100A100000F00800CDF80080022469460025CDE9E9
:100A200004700326184882E87000FFF771FC0A2161
:100A3000DFF858904020CDE903618DE83100694628
:100A40004846FFF765FC01AACDF800806946484694
:100A500082E8F000FFF75CFC4FF4605069468DE8D7
:100A6000F1000B48FFF754FC002202215C20FFF745
:100A7000A5FD5C20FFF794FD07B0BDE8F083000002
:100A8000001000A03838024000100240000402406C
:100A9000000C024070477047704770472DE9F047DF
:100AA00005000F4663D0444E306800F00F00B84296
:100AB00009D2306820F00F0038433060306800F011
:100AC0000F00B84253D128683C4C810712D540072B
:100AD00003D5206840F4E05020602878000703D553
:100AE000206840F460402060A968206820F0F00091
:100AF000084320602878C0072AD030496868083940
:100B0000012810D00968022810D0890700292EDAA0
:100B1000216821F0030101432160FFF7E5FC8046D5
:100B200041F288390DE009688903EFE78901EDE7B3
:100B3000FFF7DAFCA0EB0801494502D90320BDE824
:100B4000F0876868216801F00C01B1EB800FEFD1EC
:100B5000306800F00F00B8420BD9306820F00F0069
:100B600038433060306800F00F00B84201D00120F7
:100B7000E5E72878400705D5E968206820F4E050CB
:100B8000084320602878000706D52869216821F4E9
:100B9000604141EAC000206000F016F82168084A70
:100BA000C1F30311515CC840064908600020FFF7FB
:100BB000BFFC0020C3E70000003C024008380240B0
:100BC000401220000C000020154910B51548096896
:100BD00011F00C0213D01449042A0FD0082A0ED1A8
:100BE0000F4C241F2268236802F03F025B0207D5E6
:100BF0002068C0F38810A0FB010106E0084610BD84
:100C00002168C1F38811A1FB00010023FFF7F8FA66
:100C10002168C1F30141491C4900B0FBF1F010BD4E
:100C2000083802400024F40040787D012DE9F84F97
:100C300005004FF000076ED02878DFF81C93A9F16B
:100C4000040AC007AAF104044CD0D9F800104846A1
:100C5000C1F38101012908D00068C0F38100022896
:100C60000AD1DAF80000400206D52068800339D5A1
:100C700068680028DFD035E06868B0F5803F0BD0A9
:100C800010B1B0F5A02F11D0206820F48030206082
:100C9000206820F4802002E0206840F4803020604A
:100CA000686890B1FFF720FC06460AE0206840F42F
:100CB00080202060F0E700BFFFF716FC801B64284F
:100CC00072D820688003F7D50CE0FFF70DFC0646CC
:100CD00005E000BFFFF708FC801B6428F0D82068FF
:100CE0008003F7D42878800742D5D9F80010484609
:100CF00011F00C0F08D00068C0F3810002280BD15E
:100D0000DAF80000400207D42068800718D5E868A8
:100D1000012800D114E01CE1E8680028206817D001
:100D200040F001002060FFF7DFFB064605E000BF52
:100D3000FFF7DAFB801B0228C2D820688007F7D5AE
:100D40002869216821F0F80141EAC00020600FE025
:100D500020F001002060FFF7C7FB064605E000BF5A
:100D6000FFF7C2FB801B02281ED820688007F7D43B
:100D70002878000729D5784869696C3000298046B1
:100D8000016812D041F001010160FFF7ADFB06469A
:100D900005E000BFFFF7A8FB801B022804D8D8F8A5
:100DA00000008007F6D510E089E021F00101016024
:100DB000FFF79AFB064604E0FFF796FB801B02282C
:100DC0007DD8D8F800008007F6D4287840076BD586
:100DD000DFF8848108F13808D8F80000C0000BD48F
:100DE000D8F8001041F08051C8F80010D8F8000081
:100DF000012700F08050009058480168C90512D4BE
:100E00000168834641F480710160FFF76DFB06467F
:100E100005E000BFFFF768FB801B64284FD8DBF8B4
:100E20000000C005F6D54C4EA868683601280AD0E7
:100E300008B1052811D0306820F00100306030681A
:100E400020F0040002E0306840F001003060A86843
:100E5000A0B1FFF749FB83460CE0306840F0040086
:100E60003060F0E7FFF740FBA0EB0B0141F2883068
:100E7000814266D830688007F4D50EE0FFF734FB76
:100E8000834607E0FFF730FBA0EB0B0141F288300F
:100E9000814256D830688007F4D42FB1D8F80010BA
:100EA00021F08051C8F80010A869C8B3D9F8001023
:100EB000C1F3810102294CD00228206800E040E003
:100EC00020F08070206003D0FFF70EFB05463BE06A
:100ED000FFF70AFB064604E0FFF706FB801B02282B
:100EE0002FD820688001F7D4D5E90962D5E9070138
:100EF0001B4B570895F82C20084303EB074343EAA4
:100F00008611084340EA026040F00050CAF8000031
:100F1000206840F080702060FFF7E6FA054606E0A2
:100F200015E000BFFFF7E0FA401B022809D820684F
:100F30008001F7D50BE000BFFFF7D6FA401B02286F
:100F400002D90320BDE8F88F20688001F4D4002086
:100F5000F8E70120F6E70000083802400070004082
:100F60000000FFFF401EB0F1807F10B501D30120CB
:100F700010BD4FF0E02460610F21601700F0C3F84E
:100F80000020A0610721216110BDFEE7FEE7704748
:100F9000704710B5806B00218163C16290F84110E9
:100FA000082905D0012180F84110FFF7ACFB10BDE6
:100FB00002680221D16001680A6842F400320A60C6
:100FC0000068016841F00201016010BD2DE9F041A7
:100FD000984616460F460446069D12E0681C10D03F
:100FE0002DB1FFF781FAA0EB0800A84209D904202F
:100FF00084F84100606C40F0010060640120BDE8AD
:10100000F08120688068384000D00120B042E5D1EE
:101010000020F4E70148FFF779BB00001000002032
:101020007047FFF767BA000030B593B030216846CB
:10103000FFF71EF914210CA8FFF71AF91A480168E6
:1010400041F080510160006800F080501190174815
:10105000016841F440410160006800250DF1200C59
:101060000224009400F4404011900822D823CDE9D6
:10107000064510218CE81C0001200B94CDE90301EA
:101080006846FFF7D3FDFFF7CBFAE2024FF4A05119
:101090000F20CDE90F120CAA072182E831000CA81D
:1010A000FFF7FCFC13B030BD403802400070004038
:1010B000104A30B51048146800210F4B44F47004F6
:1010C0001460083305680D4A0D4C45F001050560B4
:1010D00019600368051D1340074A03600C322C6039
:1010E0000568E305034C25F480250560803C11600C
:1010F000236030BD88ED00E000380240FFFFF6FEBF
:1011000010300024FEE7090700284FEA116104DBD4
:1011100000F1E02080F80014704700F00F0000F1AB
:10112000E02080F8141D704702E008C8121F08C1B3
:10113000002AFAD170477047002001E001C1121F58
:10114000002AFBD17047000008B5BFF34F8FBFF3F3
:101150006F8F364800240460BFF34F8FBFF36F8F4B
:101160003349086840F400300860BFF34F8FBFF385
:101170006F8F2F4870300460BFF34F8F001F43F60E
:10118000FF7C0068294D1035C0F34E32C0F3C9030F
:101190000CEA4216184600BF46EA80772F60401ED0
:1011A000FAD2521EF4D2BFF34F8F086840F4803059
:1011B0000860BFF34F8FBFF36F8FFFF7A3F9FFF7FF
:1011C00033FF1C48016841F010010160016801F023
:1011D00010010091016841F001010160016801F016
:1011E00001010091016841F002010160016801F014
:1011F00002010091016841F00801016000680121CD
:101200000D4F042200F0080000900C480E02172534
:1012100010230760C0E90564C4610462C0E90112DB
:10122000C0E90335FFF764FBFEE7000050EF00E084
:1012300014ED00E030380240001000A01000002043
:101240000000000000000000010203040607080976
:101250007012200000000020100000002811200063
:1012600080122000100000205004000038112000DF
:101270000100000010000000000000000024F40045
:04000005002001C90D
:00000001FF
