:020000040020DA
:10000000A8040020DD012000FF152000FB152000C2
:10001000FD15200049032000291A200000000000DF
:100020000000000000000000000000004519200052
:100030004B0320000000000001162000471920009B
:10004000F7012000F7012000F7012000F701200050
:10005000F7012000F7012000F7012000F701200040
:10006000F7012000F7012000F7012000F701200030
:10007000F7012000F7012000F7012000F701200020
:10008000F7012000F7012000F7012000F701200010
:10009000F7012000F7012000F7012000F701200000
:1000A000F7012000F7012000F7012000F7012000F0
:1000B000F7012000F7012000F7012000F7012000E0
:1000C000F7012000F7012000F7012000F7012000D0
:1000D000F7012000F7012000F7012000F7012000C0
:1000E000F7012000F7012000F7012000F7012000B0
:1000F000F7012000F7012000F7012000F7012000A0
:10010000F7012000F7012000F7012000F70120008F
:10011000F7012000F7012000F7012000F70120007F
:10012000F7012000F7012000F7012000F70120006F
:10013000F7012000F7012000F7012000F70120005F
:10014000F7012000F7012000F7012000F70120004F
:10015000F7012000F7012000F7012000F70120003F
:10016000F7012000F7012000F7012000F70120002F
:10017000F7012000F7012000F7012000F70120001F
:10018000F7012000F7012000F7012000F70120000F
:10019000F7012000F7012000F7012000F7012000FF
:1001A000F7012000F7012000F7012000F7012000EF
:1001B00039192000F7012000F7012000F701200085
:1001C000F7012000F7012000DFF80CD000F07AF8EA
:1001D00000480047891A2000A804002006488047EC
:1001E00006480047FEE7FEE7FEE7FEE7FEE7FEE71C
:1001F000FEE7FEE7FEE7FEE7D5192000C901200073
:100200002DE9F05F0546002092469B46884606464B
:10021000814640241BE0284641464746224600F0DE
:1002200041F853465A46C01A914110D31146184618
:10023000224600F028F82D1A67EB01084F462246A7
:100240000120002100F01FF817EB00094E41201E8D
:10025000A4F10104DFDC484631462A464346BDE8A6
:10026000F09FD2B201E000F8012B491EFBD270478B
:100270000022F6E710B513460A4604461946FFF772
:10028000F0FF204610BD202A04DB203A00FA02F1DC
:10029000002070479140C2F1200320FA03F3194374
:1002A00090407047202A04DB203A21FA02F0002116
:1002B000704721FA02F3D040C2F120029140084376
:1002C00019467047064C074D06E0E06840F0010310
:1002D00094E8070098471034AC42F6D3FFF778FF54
:1002E000681B2000881B200015A130B591B0054681
:1002F000D1E90001CDE90E01284601F0EAFAE0B9A2
:100300000120009000210591020641F28834030289
:10031000CDE90631CDE90812CDE90A012246284689
:100320000C910D91694600F0E0FB30B90EA9224610
:10033000284600F08DFE002800D0012011B030BD0D
:10034000AAAAAAAAAA000000FEE770472DE9F04178
:10035000876D044600F016FA064694F8350000252D
:10036000022806D080206065012084F83450BDE862
:10037000F0812068016821F0160101602068416960
:1003800021F080014161206C08B9A06C20B1206887
:10039000016821F0080101602068016821F0010175
:1003A00001600CE000F0EEF9801B052807D9202140
:1003B0006165032084F8345084F83500D7E720685D
:1003C0000068C007EED194F85C203F2001219040E6
:1003D000B86084F8345084F835100020C7E790F8EE
:1003E0003510022903D08021416501207047052185
:1003F00080F835100068016821F0010101600020DB
:100400007047000070B5044600F0BCF90546601C5A
:1004100002D004480078044400F0B4F9401BA04224
:10042000FAD370BD000000202DE9F04FDFF84CE159
:1004300000224FF001094FF00F0A00BF09FA02F441
:1004400001EA0403A3427CD122F003067644970715
:10045000D6F808C83F0FDFF828810AFA07FB4045A5
:100460000BEA0C0502D14FF0000C40E0DFF814C19C
:10047000604502D14FF0010C39E0DFF80CC1604556
:1004800002D14FF0020C32E0DFF800C1604502D12A
:100490004FF0030C2BE0DFF8F8C0604502D14FF0BD
:1004A000040C24E0DFF8ECC0604502D14FF0050CED
:1004B0001DE0DFF8E4C0604502D14FF0060C16E005
:1004C000DFF8D8C0604502D14FF0070C0FE0DFF82D
:1004D000D0C0604502D14FF0080C08E0DFF8C4C07E
:1004E000604502D14FF0090C01E04FF00A0C0CFA04
:1004F00007FCAC451DD1D6F80888DFF8ACC028EA67
:100500000B08C6F808880CF10405DCF800802E1DE5
:10051000371D28EA0308CCF80080D5F800C02CEA83
:10052000030CC5F800C035689D4335603D689D43A8
:100530003D6003230768D5084FEA42084FEA427C32
:1005400000E015E04FEADC6C03FA08F39F43076014
:100550000AFA0CF600EB85052F6AB7432F6285680F
:100560009D4385604568A5434560C4689C43C4605D
:10057000521C102AFFF462AFBDE8F08F003001403A
:10058000000002400004024000080240000C02404B
:10059000001002400014024000180240001C0240FB
:1005A0000020024000240240003C01402DE9F84FA9
:1005B000DFF89CE100224FF001084FF0030B4FF0F1
:1005C0000F0A00BF0B6808FA02F42340A34271D15E
:1005D0004D68022D01D0122D0FD1D5080E69570795
:1005E00000EB8505A9462D6AFF0E0AFA07FCBE40FE
:1005F00025EA0C052E43C9F820600F7955000668DE
:100600000BFA05FC07F0030726EA0C06AF40374358
:1006100007604E68012E05D0022E03D0112E01D0A6
:10062000122E0ED18668CF6826EA0C06AF403743FB
:10063000876046680F79A643C7F300179740374392
:100640004760C4688E6824EA0C04AE402643C66046
:100650004C68E40075D53F4C256845F4804525601D
:10066000246822F00306950704F4804400943A4C71
:100670002D0F2644D6F80848DFF8E0C00AFA05F73F
:10068000604524EA070401D100272EE0344FB84228
:1006900001D1012729E0334FB84201D1022724E0DC
:1006A000314FB84201D103271FE0304FB84202D189
:1006B00004271AE045E02E4FB84201D1052714E087
:1006C0002C4FB84201D106270FE02B4FB84201D181
:1006D00007270AE0294FB84201D1082705E0284F33
:1006E000B84201D1092700E00A27AF4027437546E9
:1006F000C6F808784E68DEF80040F60324EA0304E2
:1007000000D51C43124E2C60361D4D683468AD0375
:1007100024EA030400D51C430D4F346008374D68AC
:100720003C68ED0224EA030400D51C43084D3C60FC
:100730000C354E682C68B60224EA030400D51C432D
:100740002C60521C102AFFF43DAFBDE8F88F00006A
:10075000003C0140443802400030014000000240AB
:100760000004024000080240000C02400010024059
:100770000014024000180240001C02400020024009
:1007800000240240014880687047000000000020FB
:10079000024881680278114481607047000000209F
:1007A000094810B5016841F400710160016841F425
:1007B00080710160032000F07FF8002000F006F84F
:1007C00000F024F8002010BD003C024070B50D4D33
:1007D00004464FF47A700C4A29781268B0FBF1F0A5
:1007E000B2FBF0F000F0F6FE48B9102C07D2002260
:1007F0002146501E00F040F800206C6070BD0120C2
:1008000070BD0000000000200C0000200A4808B560
:10081000016841F080510160006800F08050009054
:100820000548001D016841F480410160006800F442
:100830008040009008BD00004038024000280DDBD9
:10084000410900F01F028900012001F1E0219040E0
:10085000C1F88001BFF34F8FBFF36F8F704700283F
:1008600009DB410900F01F028900012001F1E021AC
:100870009040C1F8000170470E4BF0B41B680D4664
:10088000C3F30223C3F10706042E00D90426191D61
:10089000072901D2002300E0DB1E012404FA06F13F
:1008A0009C40491E2940641E994014402143F0BCDD
:1008B00001F0BBB80CED00E0064900F0070210B5EE
:1008C0004FF6FF040868044B204040EA022018431A
:1008D000086010BD0CED00E00000FA051848F8B5FE
:1008E000016841F0805101600068164C00F08050B2
:1008F0000090206840F480302060FFF743FF4FF401
:100900007A76054605E000BFFFF73CFF401BB0428A
:100910000FD86068C003F7D5206840F4003020602D
:10092000FFF730FF054606E0FFF72CFF401BB04203
:1009300001D90320F8BD60688003F5D50020F8BD1B
:100940004038024000700040F8B500250446FFF72B
:1009500019FF064694F84100800731D5002084F83D
:1009600040002068016849070BD5016821F00401A7
:100970000160E06BFFF7EAFC18B1606C40F0040026
:1009800060642068016841F002010160A06C0122EE
:10099000022133460090204600F077FF05000FD17A
:1009A00021680220C8600022A06C202133460090FC
:1009B000204600F06AFF050002D1012084F84100C2
:1009C0002846F8BD7047000070B5044690F8410015
:1009D0004FF0000580072CD5002184F84010082036
:1009E00084F841002068016821F4F8110160206852
:1009F0000168490711D5016821F004010160E16B2C
:100A00000D480865E06BFFF7EAFC90B1012084F81F
:100A100041002046FFF7D6FF0BE00221C1602068AD
:100A2000016841F4003101602068016841F0020171
:100A30000160284670BD0000AB1720002DE9F84F7B
:100A40001E4615468A460446FFF79CFE814694F8EA
:100A5000400001280ED001274FF0000884F84070B4
:100A600094F84100012807D05FF0020084F840802C
:100A7000BDE8F88F0220FBE74221C4F8448084F8E7
:100A80004110002220214B462046009600F0FDFE3A
:100A90000028EBD12168286888622168686848626C
:100AA0002168A868C86220682969026822F44002A7
:100AB00042F4800211430160E9684FF00062204671
:100AC000CAF82810514600F09CFD01224B4608212F
:100AD0002046009600F0D9FE0028C7D122680821E0
:100AE000D16084F84170C1E770472DE9F84F17468F
:100AF0008B460446FFF746FE824694F840000128E4
:100B00000ED001264FF0000884F8406094F84100B0
:100B1000012807D0022584F840802846BDE8F88FD8
:100B20000220FBE74FF00209C4F8448084F84190AA
:100B30000022202153462046009700F0A6FE050023
:100B4000E9D100225946204600F05BFDDBF8240085
:100B500058B90122534602212046009700F095FE25
:100B60000500D8D12168C1F80C9084F84160D2E723
:100B700010B5040015D094F84000012813D00120CE
:100B800084F840002068016821F0010101602046DE
:100B900000F060F90020606484F8410084F84000AF
:100BA00010BD012010BD022010BD7047704700002D
:100BB00070B50446006882680168530732D54B035C
:100BC00030D594F84110203012290ED094F84110FD
:100BD000222919D01CE0E16AF1B1616A4A1C626203
:100BE00009780170E16A491EE16221688968490754
:100BF000F1D40DE0A16B79B10378216B4A1C22631B
:100C00000B70A16B491EA163216889684907F1D463
:100C10002046FFF7CBFF70BD2068016821F48021DA
:100C20000160F5E793074FF001056DD58B036BD598
:100C30000221C1602068016821F4E021016094F87C
:100C40004100122810D094F84100222823D094F8B3
:100C5000410002284AD094F841000828DBD184F8EA
:100C60004150606CF0B34BE020680168490709D53A
:100C7000016821F004010160E06B0068016821F067
:100C8000010101602046FFF79FFE84F84150204695
:100C900000F03BFA70BD2068016849070AD5016879
:100CA00021F004010160E06B0068016821F001019E
:100CB000016010E0203009E0A16B61B10378216B85
:100CC0004A1C22630B70A16B491EA16321688968CD
:100CD00011F47C5FF0D12046FFF776FE84F8415096
:100CE000204600E008E000F0B0F970BD84F8415003
:100CF0002046FFF7F9FE70BD2046FFF763FE70BD8A
:100D00002046FFF752FF70BD130711D50B030FD517
:100D10000821C16020680168490205D5016821F4F5
:100D20001021016084F84150204600F08FF970BD19
:100D3000D30722D0CB0320D5C5602068016821F4F9
:100D400070210160606C40F00200606420680168FE
:100D500049070FD5016821F004010160E16B0C48DF
:100D60000865E06BFFF73BFB0028E0D0606C40F0CB
:100D70000400606484F84150C2E7D206D7D5C902A6
:100D8000D5D51021C160204600F061F970BD00008A
:100D9000AB172000F8B50446FFF7F4FC07465CB13A
:100DA00094F84000012809D0012684F8406000250D
:100DB00094F8410020B10BE00120F8BD0220F8BDFD
:100DC00084F84050204600F06DF841F28830A0646D
:100DD00020686FF0FF03A168026803EB012322F48F
:100DE000F85119430160A06C002220213B4600907D
:100DF000204600F04AFD30BB2268D4E9077C94F815
:100E000004E0E16813683943104F4CEA0E6EDFF8D6
:100E100040C03B4041EA0E01194311602168D4E90A
:100E20000527B4F810E04B683A4303EA0C0343EAA1
:100E30000E431A434A6021680A6842F001020A60C0
:100E4000656484F8416084F84050F8BD2FFFFF00CE
:100E5000FEF8E0FF10B500680D49884216D10D4834
:100E6000016821F0020101600B480421FFF7DCFA60
:100E70000A484421FFF7D8FA09484FF46051FFF7B8
:100E8000D3FABDE810405C20FFF7D8BC10BD0000CD
:100E9000001000A038380240001002400004024058
:100EA000000C02402DE9F04387B004461421684647
:100EB000FFF7DEF92F492068884257D12E48016894
:100EC00041F002010160006800F0020005902A482C
:100ED0000838016841F010010160016801F010015B
:100EE0000591016841F002010160016801F0020111
:100EF0000591016841F0080101600068092701AA15
:100F00004FF0040800F00800CDF800800224694684
:100F10000025CDE904700326184882E87000FFF729
:100F200045FB0A21DFF858904020CDE903618DE8A8
:100F3000310069464846FFF739FB01AACDF8008029
:100F40006946484682E8F000FFF730FB4FF46050F6
:100F500069468DE8F1000B48FFF728FB00220221CB
:100F60005C20FFF789FC5C20FFF779FC07B0BDE847
:100F7000F0830000001000A038380240001002404A
:100F800000040240000C02402DE9F84F15460F46C0
:100F90000446FFF7F7FB82462068816994F84030E9
:100FA00000F12009012B0DD001264FF0000884F834
:100FB000406094F84120012A06D0022084F8408045
:100FC000BDE8F88F0220FBE7C4F84480B7B32222C3
:100FD00084F841200269521CA2630269521C6263B8
:100FE0002763426922F0406242F0806242612068D9
:100FF00081610DE00621204600F047FCD8B999F840
:101000000020206B411C21630270A06B401EA06376
:10101000A06B53464FF0010200950028EAD14FF033
:101020000201204600F031FC28B921680220C86086
:101030002046FFF789FC84F84160BFE7FFE7616C59
:10104000012041F008016164B8E7704770477047BC
:101050002DE9F84F15460F460446FFF793FB94F829
:10106000401082462068012900F120090ED0012697
:101070004FF0000884F8406094F84110012907D02F
:101080005FF0020084F84080BDE8F88F0220FBE7A3
:10109000C4F8448097B3122184F841100169491CB7
:1010A000E1620169491CA1626762416921F0406106
:1010B00041610DE00421204600F0E7FBD8B9606AE9
:1010C000411C6162017889F80010E06A401EE0620C
:1010D000E06A53464FF0010200950028EAD14FF034
:1010E0000201204600F0D1FB28B921680220C86027
:1010F0002046FFF729FC84F84160C3E7FFE7616CF5
:10110000012041F008016164BCE770472DE9F04718
:1011100005000F4663D0444E306800F00F00B8421F
:1011200009D2306820F00F0038433060306800F09A
:101130000F00B84253D128683C4C810712D54007B4
:1011400003D5206840F4E05020602878000703D5DC
:10115000206840F460402060A968206820F0F0001A
:10116000084320602878C0072AD0304968680839C9
:10117000012810D00968022810D0890700292EDA2A
:10118000216821F0030101432160FFF7FBFA80464B
:1011900041F288390DE009688903EFE78901EDE73D
:1011A000FFF7F0FAA0EB0801494502D90320BDE89A
:1011B000F0876868216801F00C01B1EB800FEFD176
:1011C000306800F00F00B8420BD9306820F00F00F3
:1011D00038433060306800F00F00B84201D0012081
:1011E000E5E72878400705D5E968206820F4E05055
:1011F000084320602878000706D52869216821F473
:10120000604141EAC000206000F016F82168084AF9
:10121000C1F30311515CC840064908600020FFF784
:10122000D5FA0020C3E70000003C02400838024025
:10123000581B20000C000020154910B515480968FE
:1012400011F00C0213D01449042A0FD0082A0ED131
:101250000F4C241F2268236802F03F025B0207D56F
:101260002068C0F38810A0FB010106E0084610BD0D
:101270002168C1F38811A1FB00010023FEF7C0FF24
:101280002168C1F30141491C4900B0FBF1F010BDD8
:10129000083802400024F40040787D012DE9F84F21
:1012A00005004FF000076ED02878DFF81C93A9F1F5
:1012B000040AC007AAF104044CD0D9F8001048462B
:1012C000C1F38101012908D00068C0F38100022820
:1012D0000AD1DAF80000400206D52068800339D52B
:1012E00068680028DFD035E06868B0F5803F0BD033
:1012F00010B1B0F5A02F11D0206820F4803020600C
:10130000206820F4802002E0206840F480302060D3
:10131000686890B1FFF736FA06460AE0206840F4A4
:1013200080202060F0E700BFFFF72CFA801B6428C4
:1013300072D820688003F7D50CE0FFF723FA064641
:1013400005E000BFFFF71EFA801B6428F0D8206874
:101350008003F7D42878800742D5D9F80010484692
:1013600011F00C0F08D00068C0F3810002280BD1E7
:10137000DAF80000400207D42068800718D5E86832
:10138000012800D114E01CE1E8680028206817D08B
:1013900040F001002060FFF7F5F9064605E000BFC8
:1013A000FFF7F0F9801B0228C2D820688007F7D524
:1013B0002869216821F0F80141EAC00020600FE0AF
:1013C00020F001002060FFF7DDF9064605E000BFD0
:1013D000FFF7D8F9801B02281ED820688007F7D4B1
:1013E0002878000729D5784869696C30002980463B
:1013F000016812D041F001010160FFF7C3F9064610
:1014000005E000BFFFF7BEF9801B022804D8D8F81A
:1014100000008007F6D510E089E021F001010160AD
:10142000FFF7B0F9064604E0FFF7ACF9801B02288D
:101430007DD8D8F800008007F6D4287840076BD50F
:10144000DFF8848108F13808D8F80000C0000BD418
:10145000D8F8001041F08051C8F80010D8F800000A
:10146000012700F08050009058480168C90512D447
:101470000168834641F480710160FFF783F90646F5
:1014800005E000BFFFF77EF9801B64284FD8DBF82A
:101490000000C005F6D54C4EA868683601280AD071
:1014A00008B1052811D0306820F0010030603068A4
:1014B00020F0040002E0306840F001003060A868CD
:1014C000A0B1FFF75FF983460CE0306840F00400FC
:1014D0003060F0E7FFF756F9A0EB0B0141F28830DE
:1014E000814266D830688007F4D50EE0FFF74AF9EC
:1014F000834607E0FFF746F9A0EB0B0141F2883085
:10150000814256D830688007F4D42FB1D8F8001043
:1015100021F08051C8F80010A869C8B3D9F80010AC
:10152000C1F3810102294CD00228206800E040E08C
:1015300020F08070206003D0FFF724F905463BE0DF
:10154000FFF720F9064604E0FFF71CF9801B02288C
:101550002FD820688001F7D4D5E90962D5E90701C1
:101560001B4B570895F82C20084303EB074343EA2D
:101570008611084340EA026040F00050CAF80000BB
:10158000206840F080702060FFF7FCF8054606E018
:1015900015E000BFFFF7F6F8401B022809D82068C5
:1015A0008001F7D50BE000BFFFF7ECF8401B0228E5
:1015B00002D90320BDE8F88F20688001F4D4002010
:1015C000F8E70120F6E7000008380240007000400C
:1015D0000000FFFF401EB0F1807F10B501D3012055
:1015E00010BD4FF0E02460610F21601700F01DFA7C
:1015F0000020A0610721216110BDFEE7FEE77047D2
:1016000070472DE9F0434B6A4FF040652BB1AA4279
:1016100003D004688B6A5B1E23618B69002B68D042
:101620000C6AB4B303688C68DC61CC69FCB1D1E9A5
:101630000B38D1F824C04E6B8F8A43EA080346EA80
:101640000C0633430E6A43EA8743D1E9037C43EA3D
:101650000C0333438E693B430F68234304683343D1
:101660003B4365E0006849688161BDE8F083D1E9EA
:101670000B364F6A4C6B8D8A33433C430E692343D0
:101680000C6A43EA85438D693343096823432B433E
:1016900062E0FFE7CC69B4F1000918D0D1E90B484A
:1016A0004F6A4E6BB1F814C044EA08043E430F6819
:1016B0003443CE6844EA8C44344344EA09041C436E
:1016C00003683C431443AA425C61CBD1CDE7D1E926
:1016D0000B464F6A4D6BB1F814C034433D4300686C
:1016E0002C43096844EA8C441C430C431443446172
:1016F000BBE70B6AABB303688C68DC61CC69E4B10F
:10170000D1E90B38D1F824C04E6B8F8A43EA080325
:1017100046EA0C0633430E6A43EA8743D1E9037C69
:1017200043EA0C0333438E693B432343046833434A
:101730001343AA42636195D197E7D1E90B364F6A0B
:101740004C6B8D8A33433C430E6923430C6A43EA56
:10175000854389693343234300680B431343436143
:1017600083E7FFE7CC6984B1D1E90B384F6A4E6B50
:10177000B1F814C043EA08033E433343CE6843EA5A
:101780008C43334323430468D2E74C6A002C9DD03A
:10179000D1E90B368F8A4D6B0168334325432B43C8
:1017A00043EA8740104348615FE710B5806B002132
:1017B0008163C16290F84110082905D0012180F8A9
:1017C0004110FFF7F2F910BD02680221D1600168F3
:1017D0000A6842F400320A600068016841F00201C0
:1017E000016010BD2DE9F0410446FFF7C1F9102357
:1017F0000D4D0020190502260A1491FAA1F1C4E941
:101800000520B1FA81F1E061491E206204272046DB
:10181000C4E9033184E8E000FFF7BCFA2046BDE8E4
:10182000F041FEF761BD0000001000A070B590B05F
:1018300005464FF480760021730103939E240094A3
:10184000D8020591CDE90661032241F28834CDE941
:101850000810CDE90A21224628460C910D916946CF
:10186000FFF743F928B90EA922462846FFF78CFB5B
:1018700010B1012010B070BDBDF839009DF83810CE
:1018800040BA61F31F40401CF4E72DE9F04198464F
:1018900016460F460446069D12E0681C10D02DB176
:1018A000FEF770FFA0EB0800A84209D9042084F8D5
:1018B0004100606C40F0010060640120BDE8F081EF
:1018C00020688068384000D00120B042E5D1002077
:1018D000F4E7F0B595B00646002441F288354FF4A0
:1018E00080712A4606200690CDE90C140E9406A9B4
:1018F00030460F940B94119412941394FFF7F5F85B
:10190000B8B902204FF0807CCDF83CC04305009070
:10191000102201210391CDE9044305270697CDE963
:10192000010206A92B466A463046FFF787F80028D1
:1019300000D0012015B0F0BD0148FFF739B9000013
:10194000100000207047FEF723BF000030B593B0B1
:1019500030216846FEF78CFC14210CA8FEF788FCA9
:101960001A48016841F080510160006800F0805021
:1019700011901748016841F440410160006800255A
:101980000DF1200C0224009400F440401190082234
:10199000D823CDE9064510218CE81C0001200B94CA
:1019A000CDE903016846FFF779FCFEF797FFE202F5
:1019B0004FF4A0510F20CDE90F120CAA072182E8A5
:1019C00031000CA8FFF7A2FB13B030BD4038024035
:1019D00000700040104A30B51048146800210F4BC9
:1019E00044F470041460083305680D4A0D4C45F04A
:1019F0000105056019600368051D1340074A03606F
:101A00000C322C600568E305034C25F48025056045
:101A1000803C1160236030BD88ED00E0003802405A
:101A2000FFFFF6FE10300024FEE7090700284FEA0A
:101A3000116104DB00F1E02080F80014704700F031
:101A40000F0000F1E02080F8141D704702E008C884
:101A5000121F08C1002AFAD170477047002001E028
:101A600001C1121F002AFBD170470000054810B5C4
:101A7000FFF7B8FE0348FFF7D9FEBDE81040C820C5
:101A8000FEF7C0BC5C00002008B5BFF34F8FBFF36A
:101A90006F8F2E4900200860BFF34F8FBFF36F8F09
:101AA0002B4B196841F400311960BFF34F8FBFF31E
:101AB0006F8F274970310860BFF34F8F081F43F6BF
:101AC000FF740068214D1035C0F34E31C0F3C902D8
:101AD00004EA4116104600BF46EA80772F60401E98
:101AE000FAD2491EF4D2BFF34F8F186840F4803009
:101AF0001860BFF34F8FBFF36F8FFEF751FEFFF7F4
:101B000025FF1448016841F010010160016801F0EF
:101B100010010091016841F001010160016801F0CC
:101B200001010091016841F002010160016801F0CA
:101B300002010091016841F008010160006800F0B5
:101B400008000090FFF792FFFEE7000050EF00E072
:101B500014ED00E0303802400000000000000000FA
:101B60000102030406070809881B2000000000206A
:101B7000100000004C1A2000981B200010000020CC
:101B8000980400005C1A2000010000001000000012
:081B9000000000000024F40035
:04000005002001C90D
:00000001FF
